:020000040800F2
:10000000A807002005010008E3330008B931000803
:10001000E1330008850E0008C9390008000000001F
:100020000000000000000000000000006134000833
:100030000510000800000000053400088F34000897
:100040001F0100081F0100081F0100081F01000810
:100050001F0100081F010008091000081D100008FA
:100060001F0100081F0100081F0100081F010008F0
:100070001F0100081F0100081F0100081F010008E0
:100080001F0100081F0100081F0100081F010008D0
:100090001F0100081F0100081F0100081F010008C0
:1000A0001F0100083D3500081F0100081F0100085E
:1000B000493500081F0100081F0100081F01000842
:1000C0001F0100081F0100081F0100081F01000890
:1000D0001F0100081F010008BD3900081F010008AA
:1000E0001F0100081F0100081F010008DFF810D0E1
:1000F00000F026FE00480047D5470008AFF3008017
:10010000A80700200648804706480047FEE7FEE7AC
:10011000FEE7FEE7FEE7FEE7FEE7FEE7FEE7FEE7B7
:10012000F5340008ED000008202A04DB203A21FA0B
:1001300002F00021704721FA02F3D040C2F1200200
:100140009140084319467047A0F14101192900D890
:100150002030704740EA01039B0703D009E008C93B
:10016000121F08C0042AFAD203E011F8013B00F87C
:10017000013B521EF9D27047D2B201E000F8012BC8
:10018000491EFBD270470022F6E710B513460A4617
:1001900004461946FFF7F0FF204610BD421E12F834
:1001A000013F002BFBD111F8013B02F8013B002B72
:1001B000F9D1704730B505462A460B4612F8010BB7
:1001C00013F8014B08B1A042F8D01CB1002802D0AE
:1001D0006D1CF1E7284630BD421C10F8011B0029B8
:1001E000FBD1801A704710B5002200E0521C835CDE
:1001F0008C5CA34201D1002BF8D1D8B2E1B2401AF5
:1002000010BD30B505460020034600E05B1C93425C
:1002100005D2EC5CC85C201A01D1002CF6D130BDAF
:100220002DE9FF4F087883B09946FF2805D0491C77
:100230002D2804D00024002008E000200BE0012439
:10024000F9E700EB800003EB4000491C0B78FF2B23
:10025000F7D104B1404200230293147819461D4699
:100260002D2C01D02B2C04D1521C2D2C13D000246A
:100270000294AA461478FF2C0FD00A25A3FB057818
:1002800001FB05814FF0000C03FB0C11521CE3191C
:100290004AEB0101EEE70124EAE7814453EA010059
:1002A00002D019F5C87F06DA03980021C0E90011D1
:1002B00007B0BDE8F08F0025AE4E2F46DFF8B882BC
:1002C000184600F0FCFCCDE90001B9F1000002DAAB
:1002D000C9F1000400E004460023A74A1AEB030B0F
:1002E00042EB045A12E0E00707D02A46334638466C
:1002F000414600F003FC074688462A46334610462E
:10030000194600F0FBFB05460E466410002CEAD1AE
:10031000DDE90001B9F1000F5A46534606DA00F054
:100320005FFC3A46434600F05BFC05E000F0E6FB6C
:100330003A46434600F0E2FB029A0AB181F00041DE
:10034000039AC2E90001B3E72DE9FF4F1F468DB0C4
:10035000D7E901464FF0FF382E2045464FF00009FF
:100360000B90B9696D1C0E988847396A8246884798
:100370000028F6D1BAF1FF3F0AD024F4D064002E51
:1003800011DDBAF12B0F08D0BAF12D0F0BD102E01D
:10039000404611B08DE744F48064B9696D1C0E9835
:1003A00088478246761E6946600501D52D2000E00B
:1003B0002B208DF8000001F1010B0DF1200809E060
:1003C000B9696D1C0E98884782460F9844F40074F2
:1003D000761E0560002E02DDBAF1300FF0D00B99C9
:1003E0008A453ED144F0800406E00F99681CA9F1CB
:1003F000010944F400740860B9696D1C761E0E98FA
:10040000884782463028F0D02BE00B998A4505D1E9
:10041000200603D444F08004761E18E0504603F012
:100420008BFC08B30DF11301761E44F400748B4568
:1004300008D2AAF130000BF8010B200607D5A9F16C
:10044000010003E0200602D409F101008146A00565
:1004500002D50F99681C0860B9696D1C0E98884711
:100460008246002ED1DC53E0002E51DDBAF1650F3B
:1004700002D0BAF1450F4BD1A00549D5B9696D1C21
:1004800024F44074761E0E9888478246002E0CDDB8
:100490002B2804D0BAF12D0F07D144F48074B96928
:1004A0006D1C0E9888478246761EE00501D52D21E9
:1004B00000E02B2108F8011BCDF82C8021E00DF184
:1004C0002901761E44F4007488450CD2AAF130004C
:1004D00010F0FF0088F8000002D10B99884509D977
:1004E00008F1010806E0E00501D5244801E042F2E8
:1004F0000F708146B9696D1C0E98884782460F9827
:100500000560002E04DD504603F016FC0028D6D10D
:10051000F9690E988847FF208BF8000088F80000E2
:100520000020069007904B466A4608A906A8FFF7E8
:1005300077FEA00502D46FF001002AE714F0240F23
:100540000AD0E00714D1DDE906123868031D3B60CC
:100550000068C0E900120BE0DDE9060100F0D3FB02
:100560000146E00704D13868021D3A600068016066
:1005700028460EE7000014400000F03FF1D8FFFFCE
:1005800070B5064603F0ACFA046805460A2200215D
:10059000304600F0E7F92C6070BD2DE9FE4F804633
:1005A00081EA0300C00F0C46009021F0004123F0C7
:1005B0000045B8EB0200A94105D2404621469046CD
:1005C0001C460B46024623F00040104347D0270D3F
:1005D000C7F30A00C3F30A510290401A0190402861
:1005E0006BDAC3F3130040F4801B0098924620B1ED
:1005F0000023D2EB030A63EB0B0B01985946C0F1C1
:100600004002504600F01FF906460D465046594636
:10061000019A00F027F910EB08006141002487EAF5
:10062000115284EAE7731A4340D0009A62B3019AE8
:10063000012A4FEA075215DC001B61EB02014FF063
:10064000004202EA0752CDE90042001C41F5801148
:1006500032462B4600F004FA03B0BDE8F08F404666
:100660002146F9E7001B61EB0201001C41F58013F4
:1006700000185B412018A2F5001747EB030140EA80
:10068000D570B6196D4111E06D084FEA360645EA9E
:10069000C0754FEA0752001B61EB0201001C41F5D7
:1006A000801149084FEA30000019514132462B466B
:1006B00003B0BDE8F04F00F0C4B90098012240003B
:1006C0000023D0EB020263EBE073009821464FEA6F
:1006D000E074B8EB000061EB0401E9E783F000434C
:1006E0005BE781F0004158E796230022114600F0B5
:1006F0007AB920F00040C10DC0F3160040F40000AC
:100700007F2901DA00207047962903DCC1F19601A8
:10071000C840704796398840704770B5C1F30A5297
:1007200001F000450024C1F3130140F2FF3341F40E
:1007300080119A4201DA002070BD40F233439A42A0
:10074000A2F2334203DC5242FFF7EEFC00E090409D
:100750002C43F1D0404270BD30B5041E71F100044D
:1007600004DB4FF00044404264EB0101141E73F1BE
:10077000000405DB1C464FF00043524263EB0403C8
:100780008B4208BF824230BD30B5041E71F10004B7
:1007900004DB4FF00044404264EB0101141E73F18E
:1007A000000405DB1C464FF00043524263EB040398
:1007B000994208BF904230BD30B50B46014600203B
:1007C0002022012409E021FA02F59D4205D303FA13
:1007D00002F5491B04FA02F52844151EA2F1010294
:1007E000F1DC30BD2DE9F05F0546002092469B46C6
:1007F00088460646814640241BE028464146474637
:100800002246FFF791FC53465A46C01A914110D335
:1008100011461846224600F016F82D1A67EB01081B
:100820004F4622460120002100F00DF817EB000989
:100830004E41201EA4F10104DFDC484631462A4621
:100840004346BDE8F09F202A04DB203A00FA02F17B
:10085000002070479140C2F1200320FA03F31943AE
:1008600090407047202A06DBCB17203A41FA02F06D
:1008700043EAE07306E041FA02F3D040C2F12002FD
:100880009140084319467047426842B1016811F827
:10089000013B23B1521EC0E90012184670470121E6
:1008A000C160881E704742685AB1C368016843B985
:1008B00083688B4205D0491E521CC0E900120020FB
:1008C00070474FF0FF3070470FB4002300B589B078
:1008D0000CA900910B996FF00042CB601E4B069360
:1008E0001E4B07930423CDE901321D4A08920246AC
:1008F0006B460020FFF728FD09B05DF814FB70B5CA
:1009000086B006464FF0FF300091CDE9010100208E
:1009100015460C4604903246694604A8FFF7D4FFFA
:1009200002460498211825B108B1084600E0204687
:100930002860049800280DD0002A02DD0098884223
:1009400008D0081B0094CDE901043246694604A88A
:10095000FFF7BAFF06B070BD89080008A7080008B5
:100960006D0D00082DE9F04791460F46804604467C
:10097000002614F8015B2DB100F0F4F90068405D29
:10098000C007F6D12B2D02D02D2D18D0641E4A465B
:100990003946204600F0F3F927B13968A14201D168
:1009A000C7F8008071054FF002040BD540420028C3
:1009B00003DD03F095F80460A007BDE8F08746F476
:1009C0008066E4E70028F8DA03F08AF804606FF044
:1009D0000040F2E70029A8BF7047401C490008BF4B
:1009E00020F00100704710B4B0FA80FC00FA0CF05F
:1009F00050EA010404BF10BC704749B1CCF1200497
:100A000021FA04F411FA0CF118BF01212143084323
:100A1000A3EB0C01CB1D4FEA00614FEA102042BF4F
:100A2000002010BC704700EBC35010440029A4BF45
:100A300010BC7047401C490008BF20F0010010BCEA
:100A4000704710B5141E73F1000408DA401C41F120
:100A5000000192185B411A4301D120F0010010BD42
:100A60002DE9F04D92469B4611B1B1FA81F202E0B8
:100A7000B0FA80F220329046FFF7E5FE04460F46BA
:100A800040EA0A0041EA0B0153465A46084313D094
:100A9000114653EA010019D0C8F140025046FFF751
:100AA00043FB05460E46504659464246FFF7CBFEED
:100AB000084305D0012004E020463946BDE8F08D0A
:100AC0000020054346EAE0762C4337430A98630545
:100AD000E40AA0EB08000022FD0A44EA47540A3069
:100AE00002D500200146E9E7010510196941DDE959
:100AF000084500196941BDE8F04DA2E72DE9FE4F18
:100B000081EA030404F0004421F0004100944FF016
:100B1000000B23F0004350EA01045ED052EA0304C4
:100B20005BD0C3F30A54C1F30A552C44A4F2F33446
:100B30000194A0FB0254C1F3130141F48011C3F3EB
:100B4000130343F4801301FB024400FB034E840AA9
:100B5000970A44EA815447EA8357A4FB0768029541
:100B60008D0A05FB07854FEA932C04FB0C542705DF
:100B7000029D4FEA065847EA1637B5EB08056EEBBB
:100B8000070C870E920E47EA811742EA8312A7FBF1
:100B90000201B6EB0B0164EB00042B0D43EA0C33AE
:100BA0005E1844EB1C50DA465146E7FB0201C5F3E0
:100BB00013044FEA0B3343EA14534FEA0432019C07
:100BC00043EA0603A4F10C040294009CCDE900B4AE
:100BD000FFF746FF03B0BDE8F08F00200146F9E7BC
:100BE0002DE9F04D81EA030404F0004B21F00045AB
:100BF00014464FF0000A23F0004150EA050220D0CD
:100C000054EA01021DD0C5F30A570246C5F3130387
:100C1000C1F31300C1F30A5640F4801543F4801366
:100C2000A7EB0608101BD64608F2FD3873EB05004B
:100C300002D308F1010801E092185B41B8F1000FFE
:100C400003DA00200146BDE8F08D00204FF480114A
:100C5000064684460EE0171B73EB050705D3121BEF
:100C600063EB050306434CEA010C49084FEA3000E8
:100C700092185B4150EA0107EDD152EA030012D00D
:100C800082EA040083EA0501084305D0101BAB414A
:100C900006D20122002306E000224FF0004302E0CA
:100CA0006FF0010253101AEB06004CEB085110EBE9
:100CB0000A0041EB0B01BDE8F04DFFF7C2BE0EB5D7
:100CC00040F2334202920022CDE900221346FFF7A0
:100CD000C7FE03B000BDC1F30A52C1F3130140F2D5
:100CE000FF3341F480119A4202DA00200146704736
:100CF00040F233439A42A2F2334202DC5242FFF7FF
:100D000013BAFFF7A0BD01F0004330B421F0004159
:100D100050EA010206D00A0DA2F56072C1F3130178
:100D2000002A02DC30BC00207047440F44EAC104B2
:100D3000C100E01830BC00EBC250FFF74BBE000012
:100D4000064C074D06E0E06840F0010394E8070018
:100D500098471034AC42F6D3FFF7CCF9E8500008BE
:100D60000851000800487047E450000810B50446D8
:100D7000FFF7F8FF0068005D00F0010010BD2DE9ED
:100D8000F05F82460078002715468B460AF1010481
:100D9000B946302801D09DB113E014F8010B0127AA
:100DA000782803D0582801D045B10AE00DB1102DA4
:100DB00007D10027102514F8010B02E0082500E0F8
:100DC0000A250026B0460EE005FB080005FB06F1EB
:100DD000012701EB10461FFA80F8B6F5803F00D3DB
:100DE000B94614F8010B294600F018F80028EBDA90
:100DF000BBF1000F05D00FB1641E00E05446CBF8E4
:100E00000040B9F1000F06D002F06AFE0221016035
:100E1000C81EBDE8F09F48EA0640FAE73A2800D22B
:100E2000303820F02002412A01D3A2F13700884255
:100E300001D34FF0FF30704770B5044600688168F9
:100E4000C943C9071CD1816821F00101816000F00C
:100E5000D3FD05460FE000BF00F0CEFD401B022889
:100E600009D9A06A40F01000A062E06A40F00100D9
:100E7000E062012070BD20688068C043C007EBD0ED
:100E8000002070BDFEE7000070B50024322003F0A2
:100E90000DFC0C4D0121284600F020FD50B96420C6
:100EA00003F004FC0121284600F018FD08B10124DC
:100EB00000E0FF240121284600F010FD0028F9D1B0
:100EC000204670BD0008014070B5054600F056F898
:100ED000FFF7DAFF114C207000F022F8607000F08C
:100EE0001FF8A07000F01CF8E07000F019F82071F5
:100EF00000F016F8E0806678A17823797218E1781E
:100F00000A441A44824207D10846FFF7EDFB2860E5
:100F10003046FFF7E9FB686070BD00003C00002030
:100F20002DE9F0410024144F01260121384600F03C
:100F3000D5FC0028F9D0322003F0B8FB0121384657
:100F400000F0CCFC90B1C4F1070106FA01F028438F
:100F5000C5B20121384600F0C1FC0028F9D1641C5B
:100F6000E4B2082CE1D32846BDE8F081C4F10700C3
:100F700006FA00F08543ECE70008014010B500F0E8
:100F80001FF80E4C0121204602F075FA00220121C3
:100F9000204600F0FBFC44F2506003F087FB012286
:100FA0001146204600F0F2FC1E2003F07FFB204695
:100FB000BDE81040012102F054BA000000080140D1
:100FC0000E48016821F080710160016841F0807174
:100FD00001600B48016821F001010160016841F0E6
:100FE000010101600021416000BF00BF00BF4068F7
:100FF00008B100207047012070470000FCED00E0C0
:10100000001000E07047000010B5012000F0C6FAA3
:1010100001490120087010BD0000002010B5022019
:1010200000F0BCFA0549002002460870BDE81040F7
:101030004FF40051024800F0A9BC0000000000205D
:10104000001001402DE9F84300260546009600688F
:10105000724F0C46B046B84207D07149884204D05E
:1010600040F2AA616FA003F0F7F9206830B30128BD
:1010700024D0022822D0032820D004281ED00528FE
:101080001CD006281AD0072818D0082816D00928FE
:1010900014D00A2812D00B2810D00C280ED00D28FE
:1010A0000CD00E280AD00F2808D0102806D01128FE
:1010B00004D040F2AB615BA003F0CEF96068012878
:1010C00022D0022820D003281ED004281CD00528B6
:1010D0001AD0062818D0072816D0082814D00928B6
:1010E00012D00A2810D00B280ED00C280CD00D28B6
:1010F0000AD00E2808D00F2806D0102804D040F2BD
:10110000AC6148A003F0A8F9A06890B1012810D004
:1011100002280ED003280CD004280AD0052808D0B5
:10112000062806D0072804D040F2AD613DA003F0A8
:1011300093F995F82400012812D0012085F82400A5
:1011400060681F2107280ED22A68536B401E00EBEF
:10115000800081408B43216881400B4353631AE038
:101160000220BDE8F8832A680D280AD2136BC01F3D
:1011700000EB800081408B43216881400B43136367
:1011800009E0D36A0D3800EB800081408B43216871
:1011900081400B43D362206807210A280BD32A68B9
:1011A000D3680A3800EB400081408B43A16881403E
:1011B0000B43D36009E02B681A6900EB40008140C3
:1011C0008A43A16881400A431A612068102801D02F
:1011D00011281FD12868B84217D18168090219D493
:1011E000816841F4000181602068102812D11B48F9
:1011F0001B490068B0FBF1F000EB8000400000E00C
:10120000401E00900028FBD104E0A86A40F02000B6
:10121000A862012685F824803046A2E70024014018
:10122000002801402E2E2F447269766572732F5369
:10123000544D3332463178785F48414C5F4472698F
:101240007665722F5372632F73746D333266317803
:10125000785F68616C5F6164632E63002400002026
:1012600040420F002DE9F0414FF0000604003546E2
:1012700076D071492068884207D07049884204D0EE
:101280004FF4C1716EA003F0E7F8606838B1B0F5B3
:10129000006F04D040F2831169A003F0DDF8A0686C
:1012A0004FF4807830B1404504D04FF4C27164A04F
:1012B00003F0D2F8E06830B1012804D040F2851183
:1012C0005FA003F0C9F8E069B0B1B0F5003F13D0FA
:1012D000B0F5C02F10D0B0F5002F0DD0B0F5202FF5
:1012E0000AD0B0F5402F07D0B0F5602F04D04FF4EE
:1012F000C37153A003F0B0F8A06800281CD0206987
:10130000401E0F2804D94FF4C5714DA003F0A4F876
:10131000606988B1012806D040F28B1148A003F023
:101320009BF8606940B1A069401E072804D94FF4BA
:10133000C77143A003F090F8A06A002728B9E762BC
:1013400084F82470204600F09DF82046FFF774FDD5
:10135000A16AC90600D420B1A06A40F01000A062C2
:1013600068E0A16A21F4885141F00201A16262683B
:10137000E169E3680A4346EA43010A43A168464635
:10138000B14209D0012907D05FF00001D4F814C0A0
:10139000BCF1010F02D00AE04146F7E7F3B1A36ABE
:1013A00043F02003A362E36A43F00103E36223688E
:1013B000D3F804C02CF4694C4CEA010CC3F804C007
:1013C00021688B68DFF8B0C003EA0C0313438B601D
:1013D000A168B1420BD0012909D00CE0DFF89CC014
:1013E000A3690CEB43330B4343F40061DFE7218A2D
:1013F0000D05A5F580152168CB6A23F470032B43F6
:10140000CB62216889681E4B1940914208D1E7627E
:10141000A16A21F0020141F00101A162BDE8F08161
:10142000A06A20F0020040F01000A062E06A40F0E4
:101430000100E0620120F1E70024014000280140A2
:101440002E2E2F447269766572732F53544D3332AA
:10145000463178785F48414C5F4472697665722FF7
:101460005372632F73746D3332663178785F6861BD
:101470006C5F6164632E6300FDF7E1FF00E0FFFF36
:10148000FE0E1FFF00B585B0002100910191029171
:10149000039100680E49884218D10E48816941F4D1
:1014A00000718161816901F400710491816941F0E9
:1014B000040181618069694600F004000490022003
:1014C000009003200190044800F074F805B000BDBE
:1014D00000240140001002400008014010B590F8BF
:1014E00021100024022903D00421816301243DE05E
:1014F00001680A6822F00E020A6001680A6822F098
:1015000001020A601A4A0168914201D1012121E0D9
:10151000174A1432914201D110211BE0144A28329B
:10152000914201D1891515E0114A3C32914201D115
:1015300089140FE00E4A5032914202D14FF48031AB
:1015400008E00B4A6432914202D14FF4801101E06D
:101550004FF08071064A083A5160012180F821104D
:10156000002180F82010416B01B18847204610BD52
:101570000800024070B5044600F03EFA0546601CC3
:1015800002D004480078044400F036FA401BA04220
:10159000FAD370BD1800002070470000044910B550
:1015A0000A68024202D00860FFF7F6FF10BD000093
:1015B000140401402DE9F84FDFF8A8B20D460446A7
:1015C0004FF0000958450FD0A74884420CD0A748D7
:1015D000844209D0A648844206D0A648844203D05B
:1015E000CD21A5A002F038FF28680104090C01D024
:1015F000000C03D0CE21A0A002F02EFF6868F8B145
:1016000001281DD011281BD0022819D0122817D06C
:10161000A849884214D0A849884211D0A7498842D5
:101620000ED0A74988420BD0A649884208D0A649C7
:10163000884205D0032803D0CF218FA002F00CFFF1
:1016400000274FF0010A00BF2E680AFA07F806EAE1
:10165000080646456FD15C450FD0834884420CD0C4
:101660008248844209D08248844206D0814884421C
:1016700003D0DD2180A002F0EFFE8E4869680A1ACF
:10168000814259D00EDC032976D006DC002953D0E4
:10169000012919D002296AD131E0112921D012295A
:1016A00065D13AE0B2F5881F46D006DCB2F5803F3E
:1016B00042D0B2F5801F5AD13EE0B2F5001F3BD0B8
:1016C000B2F5041F53D137E0E868022807D001289B
:1016D00005D0032803D0E52167A002F0BDFEE8682D
:1016E0003FE0E868022807D0012805D0032803D08E
:1016F000EC2161A002F0B0FEE868001D31E0E8686E
:10170000022807D0012805D0032803D0F3215AA0CE
:1017100002F0A2FEE868083023E0E868022807D05B
:10172000012805D0032803D0FA2153A002F094FE2B
:10173000E8680C3015E089E0A86888B1012812D06B
:10174000022808D040F207114BA002F085FEA868DD
:1017500030B1012807D04FF00809C4F8148006E022
:101760000420814603E04FF00809C4F81080FF2EE2
:1017700005D8224605E0FFE74FF00000F1E704F14D
:1017800004024FEA870001D9A0F1200013684FF04E
:101790000F0101FA00FC23EA0C0309FA00FC43EAFA
:1017A0000C0313606868C00056D54848826942F04F
:1017B00001028261806927F0030200F001000090BD
:1017C000434802449068BB071B0F994088435C451F
:1017D00001D100210FE024498C4201D101210AE00E
:1017E00022498C4201D1022105E021498C4201D1DC
:1017F000032100E004219940014391606868C0031F
:101800003448016801D5314300E0B14301606868A4
:1018100080033148016801D5314300E0B1430160E4
:101820006868C00205D52C48001D0168314301607D
:1018300004E02949091D0868B0430860686880020F
:1018400005D52549083108683043086004E022487E
:1018500008300168B14301607F1C102FFFF4F4AE23
:10186000BDE8F88F00080140000C01400010014065
:1018700000140140001801402E2E2F447269766535
:1018800072732F53544D3332463178785F48414C50
:101890005F4472697665722F5372632F73746D3370
:1018A00032663178785F68616C5F6770696F2E634C
:1018B0000000000000001110000021100000311095
:1018C0000000121000002210000032100010024030
:1018D00000000140000401400404014070B50C0008
:1018E000054604D140F2C31103A002F0B5FDA8687B
:1018F000204000D0012070BD2E2E2F4472697665E5
:1019000072732F53544D3332463178785F48414CCF
:101910005F4472697665722F5372632F73746D33EF
:1019200032663178785F68616C5F6770696F2E63CB
:101930000000000070B50C00054604D140F2F9111A
:1019400003A002F089FDE8686040E86070BD000017
:101950002E2E2F447269766572732F53544D333295
:10196000463178785F48414C5F4472697665722FE2
:101970005372632F73746D3332663178785F6861A8
:101980006C5F6770696F2E630000000070B51546CC
:101990000C00064604D140F2E31108A002F05CFD01
:1019A00045B1012D04D04FF4F27104A002F054FDB2
:1019B000346170BD2004306170BD00002E2E2F44B4
:1019C0007269766572732F53544D3332463178788D
:1019D0005F48414C5F4472697665722F5372632F82
:1019E00073746D3332663178785F68616C5F6770ED
:1019F000696F2E6300000000014880687047000096
:101A00001800002002488168027811448160704704
:101A100018000020074810B5016841F0100101606E
:101A2000032000F0C7F8002000F006F800F024F8CA
:101A3000002010BD0020024070B50D4D04464FF44B
:101A40007A712878B1FBF0F00A490968B1FBF0F02F
:101A500000F08DFD48B9102C07D200222146501EFF
:101A600000F058F800206C6070BD012070BD0000CF
:101A700018000020240000200C4808B5816941F0BE
:101A800001018161816901F001010091C16941F0A9
:101A90008051C161C06900F08050009004484168E5
:101AA00021F0E06141F00071416008BD001002408A
:101AB0000000014010B5040003D5CE2106A002F0BD
:101AC000CBFC04F01F01012088406109890001F16D
:101AD000E021C1F8000110BD2E2E2F4472697665F9
:101AE00072732F53544D3332463178785F48414CEE
:101AF0005F4472697665722F5372632F73746D330E
:101B000032663178785F68616C5F636F7274657894
:101B10002E63000070B515460C460646102A03D306
:101B2000BA2114A002F098FC102C03D3BB2111A001
:101B300002F092FC1E480068C0F30223C3F10702C2
:101B40002046042A00D90422191D072901D20023A6
:101B500000E0DB1E012404FA02F1491E0140994015
:101B60009C40641E2C4021433046BDE8704001F08B
:101B700039BC00002E2E2F447269766572732F5384
:101B8000544D3332463178785F48414C5F44726936
:101B90007665722F5372632F73746D3332663178AA
:101BA000785F68616C5F636F727465782E630000A4
:101BB0000CED00E010B5044607280BD0062C09D028
:101BC000052C07D0042C05D0032C03D0A22108A09B
:101BD00002F042FC154904F0070208684FF6FF03C3
:101BE000184040EA0220124A1043086010BD00006D
:101BF0002E2E2F447269766572732F53544D3332F3
:101C0000463178785F48414C5F4472697665722F3F
:101C10005372632F73746D3332663178785F686105
:101C20006C5F636F727465782E6300000CED00E0EA
:101C30000000FA052DE9F84304460068504DC1073D
:101C40000AD181076FD4C0067ED47C214DA002F05A
:101C500003FC2078C00763D0606860B1B0F5807F76
:101C600009D0B0F5007F06D0B0F5407F03D08221C7
:101C700044A002F0F1FBE8690026C00008D4E8693E
:101C800040F08050E861E869012600F08050009043
:101C90004B480168C90512D40168804641F480713F
:101CA0000160FFF7A9FE074605E000BFFFF7A4FEAD
:101CB000C01B642823D8D8F80000C005F6D5286AD0
:101CC00010F4407021D0A18801F4407181421CD0F1
:101CD000286A3C49012220F440700A6000220A6010
:101CE0002862C00711D0FFF787FE074641F2883807
:101CF00008E000BFFFF780FEC11B414502D9032069
:101D0000BDE8F883286A8007F4D5286A616820F462
:101D10004070084328621EB1E86920F08050E861F5
:101D20002078800716D5A06860B1B0F5804F09D043
:101D3000B0F5004F06D0B0F5404F03D0C92111A037
:101D400002F08AFB686800E007E0A16820F44040E8
:101D5000084368602078C0060FD5E068B0F5800FB2
:101D600005D020B140F2251106A002F075FB68688D
:101D7000E16820F48000084368600020C0E70000AC
:101D8000001002402E2E2F447269766572732F5315
:101D9000544D3332463178785F48414C5F44726924
:101DA0007665722F5372632F73746D333266317898
:101DB000785F68616C5F7263635F65782E630000B3
:101DC00000700040400442422DE9F0470E460500F5
:101DD00004D140F22E3187A002F03EFB2868C107F3
:101DE0000AD1810708D4410706D4000704D440F281
:101DF0002F3180A002F030FB46B1012E06D0022E1A
:101E000004D04FF44C717BA002F026FBDFF81C825B
:101E1000D8F8000000F00700B0420CD2D8F800104B
:101E200021F007013143C8F80010D8F8000000F095
:101E30000700B04275D128687D4C810729D540073D
:101E400003D5606840F4E06060602878000703D53F
:101E5000606840F460506060A868A0B1802812D02B
:101E6000902810D0A0280ED0B0280CD0C0280AD0BE
:101E7000D02808D0E02806D0F02804D040F256310F
:101E80005CA002F0E9FA6068A96820F0F00008435D
:101E900060602878C00751D0686868B1012821D0F7
:101EA000022822D040F25D3152A002F0D5FA6868D3
:101EB000012817D0022818D02068800700284EDAA1
:101EC0006068696820F0030008436060FFF794FDD4
:101ED0006968074641F2883001290FD002298146FE
:101EE00019D027E020688003E8E720688001E5E753
:101EF000FFF782FDC11B494501D918E081466068A2
:101F0000C0F381000128F3D118E000BFFFF774FD92
:101F1000C11B49450BD86068C0F381000228F5D188
:101F20000CE01CE0FFF768FDC11B494502D9032006
:101F3000BDE8F087606810F00C0FF3D1D8F80010FE
:101F4000404601F00701B1420BD9016821F00701B9
:101F500031430160006800F00700B04201D0012069
:101F6000E6E728784FF4806640074FF4A0674FF407
:101F7000C0684FF4E06914D5E86860B1B0420AD097
:101F8000B84208D0404506D0484504D040F2B131AF
:101F900018A002F061FA6068E96820F4E060084384
:101FA00060602878000715D5286960B1B0420AD072
:101FB000B84208D0404506D0484504D04FF46E7171
:101FC0000CA002F049FA6068296920F4605040EAE8
:101FD000C100606000F058F86168164AC1F303114F
:101FE000515CC840144908600020FFF725FD00201F
:101FF0009EE700002E2E2F447269766572732F5370
:10200000544D3332463178785F48414C5F447269B1
:102010007665722F5372632F73746D333266317825
:10202000785F68616C5F7263632E6300002002401A
:10203000001002404A5000082400002001480068B7
:1020400070470000240000200448054900684968E2
:10205000044AC1F30221515CC840704724000020AB
:10206000001002405A5000080448054900684968B9
:10207000044AC1F3C221515CC840704724000020CB
:10208000001002405A50000812A185B00FC98DE817
:102090000F0014A0144A006804905168134801F01E
:1020A0000C03042B10D0082B0ED1C1F38343C903BA
:1020B0001DF803000AD5516804AAC1F34041515CE0
:1020C0000A4A5043B0FBF1F005B070470849484355
:1020D000FAE7000002030405060708090A0B0C0DC5
:1020E0000E0F1010010200000010024000127A00D2
:1020F00000093D002DE9F84F040004D14FF4B871F8
:10210000F4A002F0A9F94FF0010A4FF000084FF4D3
:102110008039FE4EFE4D206860B1C1070DD18107A8
:1021200063D401077ED440077DD440F27111E9A049
:1021300002F092F92078C00754D060684FF4A027CD
:1021400040B1484506D0B84204D040F27711E1A032
:1021500002F082F96868C0F38100012807D068683E
:10216000C0F38100022809D16868C00306D5286839
:10217000800337D56068002876D033E06068484532
:1021800003D1286840F4803009E008B1B8420DD08E
:10219000286820F480302860286820F48020286097
:1021A000606890B1FFF728FC07460AE0286840F411
:1021B00080202860E5E700BFFFF71EFCC01B6428F5
:1021C00077D828688003F7D50CE0FFF715FC0746A1
:1021D00005E000BFFFF710FCC01B6428F0D828689A
:1021E0008003F7D4207880074ED5206930B10128CC
:1021F00004D040F2AB11B7A002F02EF960691F289D
:1022000004D94FF4D671B3A002F026F9686810F033
:102210000C0F0AD06868C0F3810002280CD16868EE
:10222000C00301E033E06CE006D42868800713D5D2
:102230002069012818D10FE02069B0B1C6F800A0CC
:10224000FFF7DAFB074604E0FFF7D6FBC01B0228C6
:10225000B6D828688007F7D52868616920F0F800AB
:1022600040EAC10028600FE033E1C6F80080FFF7C4
:10227000C3FB074605E000BFFFF7BEFBC01B0228FB
:102280009ED828688007F7D42078000736D5A14F5C
:10229000A06920B3012806D04FF4F6718DA002F09A
:1022A000DBF8A069D8B1C7F800A0FFF7A5FB074687
:1022B00005E052E1FFF7A0FBC01B02288ED8686A38
:1022C0008007F7D594484FF4FA510068B0FBF1F05D
:1022D000009000BF0098411E0091FAD20EE0C7F8AE
:1022E0000080FFF789FB074605E000BFFFF784FB8E
:1022F000C01B0228ACD8686A8007F7D42078400752
:102300006CD5E068002740B1012806D0052804D02C
:1023100040F21B216FA002F09FF8E869C00008D4CA
:10232000E86940F08050E861E869012700F08050DA
:1023300000907A480168C90512D4016841F480719F
:102340000160FFF759FB834606E000BFFFF754FB2F
:10235000A0EB0B00642893D870480068C005F5D541
:10236000E06801280AD008B1052811D0286A20F0B9
:1023700001002862286A20F0040002E0286A40F088
:1023800001002862E068A8B1FFF736FB83460DE044
:10239000286A40F004002862F0E700BFFFF72CFB3A
:1023A000A0EB0B0141F28830814287D8286A800770
:1023B000F4D50EE0FFF720FB834607E0FFF71CFB98
:1023C000A0EB0B0141F28830814293D8286A800744
:1023D000F4D41FB1E86920F08050E861E06900287A
:1023E00076D0012809D0022807D040F2B92139A0BF
:1023F00002F032F8E06900286AD06868C0F3810012
:10240000022866D0E069022805D0C6F86080FFF790
:10241000F3FA0446A4E0206A30B1484504D040F203
:10242000C2212CA002F018F8606A70B3B0F5802FBA
:102430002BD0B0F5002F28D0B0F5402F25D0B0F527
:10244000801F22D0B0F5A01F1FD0B0F5C01F1CD038
:10245000B0F5E01F19D0B0F5001F16D0B0F5101F71
:1024600013D0B0F5201F10D0B0F5301F0DD0B0F54F
:10247000401F0AD0B0F5501F07D0B0F5601F04D040
:1024800040F2C32113A001F0E7FFC6F86080FFF718
:10249000B3FA074605E000BFFFF7AEFAC01B0228FB
:1024A0005BD828688001F7D4206A48450FD1A0681E
:1024B00038B1B0F5003F04D040F2D92105A001F0B9
:1024C000CBFF6868A16820F400300843686027E00B
:1024D00049E04AE02E2E2F447269766572732F53BD
:1024E000544D3332463178785F48414C5F447269CD
:1024F0007665722F5372632F73746D333266317841
:10250000785F68616C5F7263632E63000000424213
:10251000001002408004424224000020007000406D
:10252000D4E908010843696821F47411084368601C
:10253000C6F860A0FFF760FA044604E0FFF75CFA13
:10254000001B022809D828688001F7D50BE000BFDE
:10255000FFF752FA001B022802D90320BDE8F88FCA
:1025600028688001F4D40020F8E70120F6E710B5D0
:10257000401EB0F1807F01D3012010BD4FF0E02458
:1025800060610F21601700F02DFF0020A06107207F
:102590002061002010BD70477047000070B50D46E7
:1025A000044600682A4988420DD0B0F1804F0AD015
:1025B0002849884207D02849884204D04FF4C7618F
:1025C00026A001F049FF286890B1102810D02028DB
:1025D0000ED030280CD040280AD0502808D06028CF
:1025E00006D0702804D040F239611CA001F034FFFD
:1025F0006868802805D020B140F23A6117A001F048
:102600002BFF94F83C0001281FD0012084F83C00E7
:10261000022184F83D1021684A6822F070024A6065
:1026200021684A682B681A434A6021688A6822F048
:1026300080028A6021688A686B681A438A6084F81D
:102640003D00002084F83C0070BD022070BD0000F9
:10265000002C014000040040000800402E2E2F44B2
:102660007269766572732F53544D333246317878E0
:102670005F48414C5F4472697665722F5372632FD5
:1026800073746D3332663178785F68616C5F74693A
:102690006D5F65782E63000010B5040036D02549C3
:1026A000206888420CD0B0F1804F09D0224988427E
:1026B00006D02249884203D0D92121A001F0CCFEC6
:1026C000A06858B1102809D0202807D0402805D08C
:1026D000602803D0DA211AA001F0BEFE206948B1BB
:1026E000B0F5807F06D0B0F5007F03D0DB2114A0C9
:1026F00001F0B2FEA06928B1802803D0DC2110A02F
:1027000001F0AAFE94F83D0010B107E0012010BDD1
:10271000002084F83C00204600F02EF8022084F8C7
:102720003D00211D206800F015FF012084F83D00C8
:10273000002010BD002C01400004004000080040B3
:102740002E2E2F447269766572732F53544D333297
:10275000463178785F48414C5F4472697665722FE4
:102760005372632F73746D3332663178785F6861AA
:102770006C5F74696D2E630008B5154A01681548D1
:1027800091420ED1816941F400618161806900222A
:1027900000F40060009011461920FFF7BBF91920E2
:1027A00010E0B1F1804F11D1C16941F00101C16167
:1027B000C069002200F00100009011461C20FFF7C4
:1027C000A9F91C20BDE80840FFF774B908BD000056
:1027D000002C01400010024010B5044600680E496C
:1027E00088420DD0B0F1804F0AD00C49884207D002
:1027F0000B49884204D040F261110AA001F02CFE7E
:102800002068C16841F00101C1602068016841F0A1
:1028100001010160002010BD002C014000040040B7
:10282000000800402E2E2F447269766572732F5374
:10283000544D3332463178785F48414C5F44726979
:102840007665722F5372632F73746D3332663178ED
:10285000785F68616C5F74696D2E63002DE9F047E5
:10286000044690F83C000D4601283CD04FF0010989
:1028700084F83C90022084F83D0028684FF480568C
:102880004FF40058B04215D0404513D090B11028F5
:1028900010D020280ED030280CD040280AD0502844
:1028A00008D0602806D0702804D040F67171C5A009
:1028B00001F0D2FD2068816821F0770121F47F4189
:1028C0008160CF492B68CD48CE4ACF134FF0804C62
:1028D000502B7DD00FDC202B7BD007DC002B79D058
:1028E000102B78D13BE10220BDE8F087302B73D06C
:1028F000402BF6D1F7E0602B6FD04FF4405A702B8D
:1029000051D0B3423CD04345EBD1236883420AD037
:10291000634508D08B4206D0934204D04FF47A61CD
:10292000A8A001F099FDA86850B1B04208D0404578
:1029300006D0504504D040F6A371A2A001F08CFD52
:102940006868B84209D040B1022806D00A2804D0ED
:1029500040F6A4719BA001F07FFDE8680F2804D920
:1029600040F6A57197A001F077FDD5E90121EB684C
:10297000206800F025FE2068816841F4804153E022
:10298000236883420AD0634508D08B4206D0934225
:1029900004D040F67D718BA001F05EFD2068816857
:1029A00021F0070140E0236883420AD0634508D044
:1029B0008B4206D0934204D040F6867181A001F08C
:1029C0004BFDA86888B1B0420FD040450DD005E05E
:1029D0002CE0D5E0B2E080E0E3E052E0504504D0E6
:1029E00040F6897177A001F037FD6868B84209D0D8
:1029F00040B1022806D00A2804D040F68A7171A09E
:102A000001F02AFDE8680F2804D940F68B716DA00B
:102A100001F022FDD5E90121EB68206800F0D0FD2E
:102A20002068816841F07701816056E02368834225
:102A30000AD0634508D08B4206D0934204D040F6BA
:102A4000B47160A001F008FD6868B84209D040B1D7
:102A5000022806D00A2804D040F6B77159A001F028
:102A6000FBFCE8680F2804D940F6B87155A001F0C6
:102A7000F3FCEA686968206800F0B4FD5021206822
:102A800029E0236883420AD0634508D08B4206D0F0
:102A9000934204D040F6C3714AA001F0DDFC68689F
:102AA000B84209D040B1022806D00A2804D040F626
:102AB000C67144A001F0D0FCE8680F2804D940F6A4
:102AC000C77140A001F0C8FCEA686968206800F09E
:102AD0009AFD6021206800F07DFD84F83D90002083
:102AE00084F83C0000E7236883420AD0634508D09D
:102AF0008B4206D0934204D040F6D27131A001F04F
:102B0000ABFC6868B84209D040B1022806D00A2858
:102B100004D040F6D5712BA001F09EFCE8680F2888
:102B200004D940F6D67127A001F096FCEA686968DE
:102B3000206800F057FD40212068CCE723688342DD
:102B40000AD0634508D08B4206D0934204D040F6A9
:102B5000E1711CA001F080FC00212068BBE7236824
:102B600083420AD0634508D08B4206D0934204D0FA
:102B700040F6E97113A001F06FFC10212068AAE76C
:102B8000236883420AD0634508D08B4206D0934223
:102B900004D040F6F1710BA001F05EFC202120680A
:102BA00099E7236883420AD0634508D08B4206D058
:102BB000934204D040F6F97102A001F04DFC30219F
:102BC000206888E72E2E2F447269766572732F5322
:102BD000544D3332463178785F48414C5F447269D6
:102BE0007665722F5372632F73746D33326631784A
:102BF000785F68616C5F74696D2E6300002C014022
:102C00000004004000080040704770B504460068AA
:102C100001694FF00005C943890715D4C168C9434C
:102C2000890711D4E91E016101202077206880699D
:102C30008007204602D0FFF7E7FF04E000F098F895
:102C4000204600F096F8257720680169C9434907B6
:102C500017D4C168C943490713D46FF00401016157
:102C6000022020772068806910F4407F204602D03F
:102C7000FFF7CAFF04E000F07BF8204600F079F887
:102C8000257720680169C943090716D4C168C9437B
:102C9000090712D46FF00801016104202077206831
:102CA000C0698007204602D0FFF7AEFF04E000F0C5
:102CB0005FF8204600F05DF8257720680169C94378
:102CC000C90617D4C168C943C90613D46FF01001EF
:102CD0000161082020772068C06910F4407F2046F9
:102CE00002D0FFF791FF04E000F042F8204600F028
:102CF00040F8257720680169C943C90708D1C16830
:102D0000C943C90704D1891E0161204600F032F889
:102D100020680169C943090609D4C168C943090685
:102D200005D46FF0800101612046FFF734FC206874
:102D30000169C943490609D4C168C943490605D494
:102D40006FF040010161204600F044F820680169FD
:102D5000C94389060BD4C168C943890607D46FF0FB
:102D6000200101612046BDE87040FFF715BC70BD31
:102D700070477047F8B51449054600680968134C58
:102D8000134E88420ED1207801280BD141033046E2
:102D9000FEF7D0FD607900902379E278A178607821
:102DA00002F028F8084928684039096888420AD1A1
:102DB0002078012807D181033046FEF7BBFDBDE82E
:102DC000F84000F021BBF8BDC0000020000000204A
:102DD000001001407047704770B5026804461068E3
:102DE000D168536910F00F0F50D003F0010501F4C2
:102DF000907635435DD0C20705D0CA0503D5E26B96
:102E000042F00102E263420705D5DA0703D0E26B24
:102E100042F00202E263820705D5DA0703D0E26BD3
:102E200042F00402E263020705D5DA0703D0E26B41
:102E300042F00802E263E26B002A33D0800604D538
:102E4000880602D5204600F006FC20684069E16B48
:102E5000C0F38010090700D428B3204600F0EDFB32
:102E60002068416949061AD5416921F04001416154
:102E7000606BA0B11B494163606BFEF72FFB00281C
:102E800010D0606B416BBDE870400847830610D5D9
:102E90008B060ED52046BDE8704000F0DCBB204616
:102EA000FFF799FF70BD2046FFF795FF0020E06314
:102EB00070BD030606D50B0604D52046BDE870405C
:102EC00000F018BD4006F3D54806F1D5D16820467C
:102ED00021F04001D160202184F8391000F06BF915
:102EE00070BD00002B36000870B5040020D0A0692A
:102EF00030490028304A314B20681BD088420AD024
:102F0000904208D0984206D040F20F112CA001F058
:102F1000A3FAA069C8B1A069B0F5807F15D0B0F55B
:102F2000007F12D0B0F5407F0FD04FF4887109E0D8
:102F3000012070BD884208D0904206D0984204D04B
:102F40004FF48A711EA001F087FAA06838B1B0F57D
:102F5000805F04D04FF48B7119A001F07DFA94F8D2
:102F60003900002520B984F83850204600F046F892
:102F7000242084F839002068C16821F40051C16020
:102F8000204600F0B3FB2068016921F49041016103
:102F90002068416921F02A0141612068C16841F43B
:102FA0000051C160E563202084F8390084F83A00BC
:102FB000002070BD0038014000440040004800403F
:102FC0002E2E2F447269766572732F53544D33320F
:102FD000463178785F48414C5F4472697665722F5C
:102FE0005372632F73746D3332663178785F686122
:102FF0006C5F756172742E630000000030B585B09F
:1030000000240094019402940394006818498842B3
:103010002BD11848C16941F40031C161C16901F483
:1030200000310491816941F0040181618069124D90
:1030300000F004000490042000900220019003207E
:10304000039069462846FEF7B5FA0820CDE900044A
:10305000694628460294FEF7ADFA00221146262062
:10306000FEF758FD2620FEF725FD05B030BD000017
:1030700000440040001002400008014090F83A303F
:10308000202B22D1F9B1F2B190F83830012B1CD0AD
:1030900081628285C2850021C163222280F83A20A4
:1030A00080F838100168CA6842F48072CA6001680A
:1030B0004A6942F001024A610068C16841F020019A
:1030C000C160002070470120704702207047000057
:1030D00010B500680649884208D100F0A7F9BDE89C
:1030E0001040012203490448FFF7C8BF10BD00008B
:1030F0000044004007000020000100202DE9F843B3
:10310000044690F839001F4616460D46202850D137
:10311000A5B19EB194F8380001284AD0012084F866
:1031200038004FF00008C4F83C80212084F83900B2
:10313000FEF762FCA6848146E68426E00120BDE815
:10314000F883E08C401EE084A0684B46B0F5805FB9
:103150004FF000024FF080012046009703D000F0AE
:10316000FAFBE8B90DE000F0F6FBC8B92888216841
:10317000C0F308004860206908B16D1C05E0AD1C73
:1031800003E0216815F8010B4860E08C0028D8D1D5
:103190004B46002240212046009700F0DCFB08B19E
:1031A0000320CCE7202084F8390084F83880002000
:1031B000C5E70220C3E77047FEE700003EB50025E3
:1031C0000D480095019502958560C56009494561E6
:1031D0000160012445604FF460210461C161FEF784
:1031E00041F8009469460448CDE90145FDF72AFFFE
:1031F0003EBD000000240140500000202DE9F047B2
:1032000086B0002446480094019402940394816996
:1032100041F010018161816901F01001049181691F
:1032200041F020018161816901F0200104918169EF
:1032300041F004018161816901F004010491816917
:1032400041F0080181618069DFF8D89000F0080042
:103250004FF4C0450490002229464846FEF796FBED
:10326000DFF8C4A04FF47058002241465046FEF7E4
:103270008DFB0095022701250397CDE9015469468E
:103280004846FEF797F9E8030326CDE900066946AC
:103290004846FEF78FF9CDE90054DFF89090694673
:1032A00048460294FEF786F930208DE831006946E1
:1032B0004846FEF77FF949F6C070CDE90006694639
:1032C0004846FEF777F91A480096CDE901056946A8
:1032D0005046FEF76FF94CF2FC30CDE90006694626
:1032E0005046FEF767F9CDF800800397CDE9015409
:1032F00069465046FEF75EF9002211460620FEF7A9
:1033000009FC0620FEF7D6FB002211460720FEF737
:1033100001FC0720FEF7CEFB06B0BDE8F0870000F9
:103320000010024000100140000C01400008014064
:103330000000211010B586B00024134800940194B9
:103340000294039404940F49059401604FF4E151F1
:10335000C0E9011442F6DF61C0E9031444618461ED
:10336000FFF79AF94FF48050009069460648FFF73E
:1033700075FA049404A904480594FFF70FF906B000
:1033800010BD0000002C01408000002010B586B068
:1033900000241248009401940294039404944FF082
:1033A0008041059401604FF4E151C0E9011441F2FC
:1033B0008731C0E9031480218161FFF76DF94FF473
:1033C0008050009069460548FFF748FA049404A924
:1033D00002480594FFF7E2F806B010BDC0000020D7
:1033E000FEE770470907090E002806DA00F00F0013
:1033F00000F1E02080F8141D704700F1E02080F813
:10340000001470477047000070B50748FDF75CFD79
:10341000054C2068FDF76DF9A4F11005687060682F
:10342000FDF767F9A87070BD1000002070B50A4D57
:103430000A4CE9790A2904D0A8682154401CA860E4
:1034400070BD064800F0C2FA00210846A960215468
:10345000401C6428FBDB70BD000000204001002000
:1034600070471FB5002200910192029203926946B3
:10347000FEF7A0F81FBD1FB5002200910121CDE984
:103480000112022103916946FEF794F81FBDFEF771
:10349000B9BA30B593B028216846FCF774FE142100
:1034A0000AA8FCF770FE002401200F9410941194D8
:1034B000010412948DE8130004904FF4E010CDE95C
:1034C0000810022507956846FEF714FE0F20CDE987
:1034D0000A056802CDE90C4002210AA80E94FEF705
:1034E00073FCA80311900F950FA8FEF7A3FB13B070
:1034F00030BD00000D48016841F0010101604168E4
:103500000B4A1140416001680A4A1140016001689C
:1035100021F480210160416821F4FE0141604FF4F3
:103520001F0181600449C003086070470010024019
:103530000000FFF8FFFFF6FE08ED00E00148FFF78E
:1035400064BB0000800000200148FFF75EBB000064
:10355000C0000020F0B50268164B174C174D4FF015
:103560008047984205D0B84203D0A04201D0A8427B
:1035700003D122F070064A683243984205D0B8421F
:1035800003D0A04201D0A84203D122F44074CA68FB
:10359000224322F080044A69224302608A68C262A0
:1035A0000A688262984201D109690163012141617F
:1035B000F0BD0000002C0140000400400008004065
:1035C00010B5846842EA032224F47F440A4322436C
:1035D000826010BD826822F070020A4342F0070147
:1035E0008160704710B5036A046A24F00104046224
:1035F000846924F0F00444EA021423F00A020A4326
:103600008461026210BD10B5036A23F010030362E7
:103610008369046A23F4704343EA023224F0A0036E
:1036200043EA01118261016210BD10B5406A0021B8
:10363000C185C184FFF7CFFB10BD0168CA6822F4C1
:103640009072CA6001684A6922F001024A61202131
:1036500080F83A10704710B590F83A10222901D03E
:10366000022010BD8168B1F5805F11D00169002989
:1036700001681FD0496801F07F03816A4A1C826299
:103680000B70C18D491E0904090CC18518D02BE0AF
:103690000269816A002A0268526805D0D2B20A80A3
:1036A000816A491C8162ECE7C2F308020A80816AE0
:1036B000891CF7E74A68816A4B1C83620A70E0E75D
:1036C0000168CA6822F02002CA600168CA6822F450
:1036D0008072CA6001684A6922F001024A612021B1
:1036E00080F83A10FFF7F4FC002010BD2DE9F041FE
:1036F000044640686E49884204D340F6A7116DA085
:1037000000F0AAFEE06838B1B0F5005F04D040F6E2
:10371000A81168A000F0A0FE206950B1B0F5806F3C
:1037200007D0B0F5C06F04D040F6A91161A000F039
:1037300093FE60694FF6F371084200D120B940F65C
:10374000AA115CA000F088FE20680169E26821F4FB
:103750004051114301612169A06808436169084330
:103760002168CA6841F20C639A430243CA60206828
:103770004169A26921F44071114341615C492068AB
:103780006425322688423CD1FEF76EFC00EBC00176
:1037900001EB001061688900B0FBF1F7FEF764FCF3
:1037A00000EBC00101EB00106168B0468900B0FB7E
:1037B000F1F0B0FBF5F06FF01801484307EB800122
:1037C00006EB0110B0FBF5F000F0F006FEF74CFC44
:1037D00000EBC00101EB001061688900B0FBF1F063
:1037E000B0FBF5F006EB0016FEF73EFC00EBC00167
:1037F00001EB001061688900B0FBF1F7FEF734FCC3
:103800003BE0FEF721FC00EBC00101EB001061681A
:103810008900B0FBF1F7FEF717FC00EBC00101EBEC
:1038200000106168B0468900B0FBF1F0B0FBF5F024
:103830006FF01801484307EB800106EB0110B0FB65
:10384000F5F000F0F006FEF7FFFB00EBC00101EB26
:10385000001061688900B0FBF1F0B0FBF5F006EBF9
:103860000016FEF7F1FB00EBC00101EB00106168F0
:103870008900B0FBF1F7FEF7E7FB00EBC00101EBBD
:10388000001061688900B0FBF1F0B0FBF5F06FF05B
:103890001801484307EB800108EB0110B0FBF5F07D
:1038A000216800F00F0030448860BDE8F08100001E
:1038B00021AA44002E2E2F447269766572732F530D
:1038C000544D3332463178785F48414C5F447269D9
:1038D0007665722F5372632F73746D33326631784D
:1038E000785F68616C5F756172742E630000000020
:1038F0000038014090F83910212901D0022070478A
:103900008168B1F5805F016A0BD04A1C02620268CF
:1039100009785160C18C491E0904090CC1840ED07C
:1039200017E009880268C1F30801516001690029A4
:10393000016A02D0491C0162ECE7891CFBE70168BF
:10394000CA6822F08002CA600068C16841F0400184
:10395000C160002070472DE9F041984617460E4699
:103960000446069D1DE0681C1BD02DB1FEF744F8EF
:10397000A0EB0800A84214D92068C16821F4D071D6
:10398000C1602068416921F001014161202084F873
:10399000390084F83A00002084F838000320BDE89C
:1039A000F0812068006836EA000004D00020B842A8
:1039B000D9D00020F3E70120F9E700000148FFF724
:1039C0000BBA000000010020FEE700002DE9F041E5
:1039D00000F0E8FD314C0028E0605AD030A100F042
:1039E000D3FD0025DFF8BC800126F8B12CA1E068EA
:1039F00000F0CAFD00692CA1FCF7DCFBF70230B136
:103A0000012239464046FDF7C1FFE5700EE024A1D2
:103A1000E06800F0B9FD006924A1FCF7CBFB28B1F8
:103A2000002239464046FDF7B1FFE67020A1E0686C
:103A300000F0AAFD00B31EA1E06800F0A5FD00693A
:103A400019A1FCF7B7FB4FF4806730B1012239466A
:103A50004046FDF79BFF25710EE015A1E06800F0E0
:103A600093FD006911A1FCF7A5FB28B1002239469E
:103A70004046FDF78BFF26710EA1E06800F084FD43
:103A800038B10CA1E06800F07FFD0069FCF778FD1B
:103A90006071E068BDE8F04100F052BD0000002018
:103AA00054423100000C01403000000031000000A1
:103AB00054423200433100000FB4084B10B504A942
:103AC00002AA039800F040F9044602A9002000F081
:103AD000BEFC204610BC5DF814FB00004F440008FB
:103AE000004870474C00002030B528B1144C031F2B
:103AF000002021680A4605E0084630BD9A4203D8F6
:103B000010465268002AF9D1002800D041680BD035
:103B10000468A3EB0005A54204D11B681C440346BE
:103B2000046002E0436000E023603AB11C68D51AEB
:103B3000A54203D115682C441C6052685A6030BD00
:103B4000440000202DE9F04782460F4C10480D4EEE
:103B50000E4F001B4FF0000820F007054FF0010941
:103B600000221146504600F00DFE002802D13068B8
:103B700010B10020BDE8F0873C60C4E90058C6F8E9
:103B80000090EDE748000020AC0100204400002038
:103B9000A803002002E008C8121F08C1002AFAD1B9
:103BA00070477047002001E001C1121F002AFBD1BD
:103BB000704700002DE9FF5F82B00021DDE904308D
:103BC000020DDDF840B0034318D044F61050A2F2C5
:103BD000FF3242431514119801281FD0A5EB0B00AA
:103BE000401C5FEA000A4FF000064E4FDFF83891A4
:103BF000B046504615D5CAF1000413E011980124CF
:103C00004AA3012801D16FEA0B010298119AC0E979
:103C10000031C0E9024206B0BDE8F09FCBF10000E0
:103C2000DFE704460021404A491842EB0450CDE941
:103C3000001012E0E00707D032463B4640464946B6
:103C4000FCF75CFF8046894632463B4610461946E3
:103C5000FCF754FF06460F466410002CEAD1DDE95C
:103C60000401DDE90023BAF1000F06DAFCF746FF94
:103C700042464B46FCF742FF05E0FCF7B1FF4246E7
:103C80004B46FCF7ADFF04460E460022284BFCF7DE
:103C90007BFD03D84FF0FF30014607E00022254BA3
:103CA00020463146FCF779FCFDF715F8102409E0B1
:103CB000002C0ADB0A220023FCF794FD039B303220
:103CC0001A55641E50EA0102F2D1641C039AC4F131
:103CD00011031444119A012A03D0012208430DD183
:103CE0000AE0084304D000204FF0110B119072E756
:103CF000A3EB0B056D1E0DE05B4504DD4FF00002EC
:103D000005F1010504E003DA4FF00002A5F1010519
:103D1000002AECD002981199C0E90231C0E90045AF
:103D200079E70000000014400000F03F3000000080
:103D30000000F0430000E03F30380A2801D20120A3
:103D400070470020704700002DE9FF4F95B09A465C
:103D5000884606460025EEE1252877D1002427462F
:103D6000F94A0121039400E0044316F8013F203B87
:103D700001FA03F01042F7D130782A2811D06FF001
:103D80002F033078A0F13002092A16D8039A44F0A4
:103D9000020402EB820203EB42021044761C039001
:103DA000EFE758F8042B0392002A03DA504244F458
:103DB0000054039044F00204761C30782E2816D16B
:103DC00016F8010F44F004042A280DD06FF02F02DA
:103DD0003078A0F13003092B09D807EB870302EBF9
:103DE0004303C718761CF3E758F8047B761C307839
:103DF0006C280FD006DC4C2817D068280DD06A2814
:103E000014D104E0742810D07A280FD10DE044F4C6
:103E100000140AE044F4801401E044F44014727881
:103E2000824202D104F58014761C761C3078662814
:103E30000BD013DC582877D009DC002875D0452832
:103E4000F6D04628F4D047281AD193E118E0632829
:103E500035D0642879D0652812D18BE1702873D0D1
:103E600008DC6728F1D069286FD06E280DD06F2844
:103E700006D1ACE073282CD0752874D0782853D0A4
:103E80005246179990476D1C54E1C4F30250022822
:103E900009D003280DD0D8F8001004280DD00D60EB
:103EA00008F1040846E1D8F80010EA17C1E9005209
:103EB000F6E7D8F800100D80F2E70D70F0E718F87B
:103EC000041B8DF8001000208DF80100EB46012046
:103ED00003E058F804BB4FF0FF3061074FF00001DA
:103EE00002D40DE009F101018946B9420FDA81459A
:103EF000F8DB1BF809100029F4D108E009F10101F1
:103F000089468142FADB1BF809100029F6D1039893
:103F10005346A0EB090721463846179A00F080FA6D
:103F2000284400EB090507E044E008E10DE01BF838
:103F3000010B524617999047B9F10109F7D2534640
:103F400021463846179AF2E039E00A21C4F30252BA
:103F50004FF0000B0091022A06D058F8040BC1174D
:103F6000032A09D00AE023E008F1070020F0070245
:103F7000F2E80201904605E000B2C117042A01D11F
:103F800040B2C117002906DA0A460021404261EB1F
:103F900002012D2202E0220504D52B228DF80420F7
:103FA000012203E0E20701D02022F7E7914657E023
:103FB0000A2100E010214FF0000B00910BE01021CE
:103FC0004FF0000B44F004040827009103E00820A0
:103FD0004FF0000B0090C4F30252022A05D058F8AB
:103FE000040B0021032A08D008E008F1070020F0A4
:103FF0000702F2E80201904603E080B2042A00D1F1
:10400000C0B24FF0000922072AD53278702A07D0B3
:10401000DDF800C08CF0100C5CEA0B0C05D00EE053
:1040200040228DF80420012208E050EA010306D066
:1040300030238DF804308DF8052002229146009B34
:1040400083F0080353EA0B030AD150EA010201D1BD
:10405000620705D530228DF804204FF001097F1E3C
:104060003278582A04D039A20C920CAA02920BE0A2
:104070003BA2F9E75B46009AFCF7B4FB0C9B9B5C08
:10408000029A521E0292137050EA0102F2D1029873
:1040900004A9081A00F1200B600702D524F480342B
:1040A00000E001275F4502DDA7EB0B0000E00020E8
:1040B00000EB0B01009003984944401A0390E00381
:1040C00006D453462146179A039800F0A9F90544EF
:1040D000002706E001A85246C05D179990476D1C65
:1040E0007F1C4F45F6DBE0030CD553462146179A5B
:1040F000039800F095F9054404E0302052461799E2
:1041000090476D1C0099481E00900029F5DC08E0DE
:104110000298029952460078491C029117999047DB
:104120006D1CBBF10001ABF1010BF1DC5BE100F0B8
:1041300065F90544761C307800287FF40DAE19B07F
:104140002846BDE8F08F00000928010030313233E5
:1041500034353637383961626364656600000000C3
:1041600030313233343536373839414243444546AD
:1041700000000000600700D4062708F1070020F0C7
:104180000700F0E80223804603F0004C5FEA0C00D1
:1041900001D097A009E0200501D596A005E0E00731
:1041A00001D095A001E0AFF24C001390307823F0DD
:1041B000004365280CD006DC452809D046281DD0D0
:1041C00047287FD13BE0662818D067287AD136E0AF
:1041D0000021112F01DB112000E0781CCDE9000146
:1041E00004A90CA8FFF7E6FCDDE90D010C9A4FF0DD
:1041F000000B07F10109109200914EE04FF00040D2
:104200000097CDE9011004A90CA8FFF7D3FCDDE964
:104210000D020C9B0F994FF0000B914610930092EA
:1042200011B9791C00EB0109B7EB090003D4C0F107
:10423000FF3B07F10109A9EB0700019042E0012FC4
:1042400000DA01270021112F01DD112000E038469E
:10425000CDE9000104A90CA8FFF7ACFCDDE90D01D4
:104260000C9A00914FF0000BB946109221070FD421
:10427000009A4A4503DA914601E0A9F10109B9F132
:10428000010F05DD109AA9F10101515C3029F4D02C
:10429000B84202DA10F1040F03DA0121CDE901106E
:1042A00010E0002803DC8344A9EB000102E0411C7C
:1042B000494500DD8946A0EB0B00401C01904FF002
:1042C00000400290200705D40198484502DB4FF0DA
:1042D000FF30019000208DF84B0002980DF14B0744
:1042E000B0F1004F25D002200C902B200D900298A9
:1042F00000280CDA404202902D200D9007E00A21A0
:104300000298FCF759FA3031029007F8011D0C9918
:10431000481E0C900029F2DC02980028EFD1791E8B
:104320000D980870307800F0200040F0450007F844
:10433000020D11A8C01BC01D02901398007800B197
:10434000012000EB0901019801EBE07102980144A2
:104350000398401A401E0390E00306D453462146BA
:10436000179A039800F05CF805441398007818B188
:104370005246179990476D1CE00323D553462146BA
:10438000179A039800F04CF805441BE0BBF1000FAE
:1043900007DB0098584504DD1098179910F80B00BA
:1043A00001E0179930205246904701980BF1010B1C
:1043B000401E05F10105019004D12E2052461799A7
:1043C00090476D1CB9F10001A9F10109DEDC05E09F
:1043D00017F8010B5246179990476D1C0299481E19
:1043E00002900029F4DC53462146179A03989EE672
:1043F0002D0000002B000000200000002DE9F041FE
:10440000044600251E461746880404D405E03946B4
:104410002020B0476D1C641EF9D52846BDE8F08108
:104420002DE9F041044600251E469046C80301D5FB
:10443000302700E02027880404D505E041463846AF
:10444000B0476D1C641EF9D52846BDE8F0810A68A6
:10445000531C0B6010707047704710B530B1036883
:1044600023B1D0E90121914201D204E0002010BD26
:10447000491C816020B1914202D25C5C202CF7D9AA
:104480009142F4D1491E816010BD00002DE9F04138
:10449000284D10212846FDF721FA0026DFF89880E4
:1044A000264C0127F0B91420FDF764F810212846A6
:1044B000FDF714FA80B9E0782915012801D030B150
:1044C0000AE001224046FDF761FAE67004E00022AE
:1044D0004046FDF75BFAE77010212846FDF7FEF92C
:1044E0000028F9D020212846FDF7F8F900281FD12F
:1044F0001420FDF73FF820212846FDF7EFF988B991
:1045000020794FF40061012801D030B10AE0012286
:104510004046FDF73BFA267104E000224046FDF7D5
:1045200035FA277120212846FDF7D8F90028F9D05F
:10453000BDE8F08100080140000C014000000020AF
:1045400070B504460F4E19E0A0892568C0050AD44D
:10455000A06820B1FFF7F4FFA089C00503D420694B
:1045600008B171688847A089800503D4206A08B122
:10457000716888477168204688472C46002CE3D133
:1045800070BD000030000020002200F0A5B810B57A
:10459000016828208847040002D02821FBF7F3FD9A
:1045A000204610BD0022114600F06EB82DE9F047FC
:1045B00088B00F4604469A4616461C216846FBF70B
:1045C000E2FD2F480025002C0560456055D081464E
:1045D000E7B3CDE900470295D9E90212D9F81000F6
:1045E0000491CDE9052009F10800FFF7D0FF5FEA4B
:1045F00000082BD000986F4608B1029808B1002738
:104600000BE00198042808D903221EA10098FBF7AB
:10461000F8FD10B90298C01C02903846FFF71DFF44
:104620000146404600F032FB68B1BAF1000F13D0EA
:104630006846FFF712FFDDE90101814203D20299CA
:104640000098405C40B14046FFF77AFFDDE9011079
:1046500088420AD205460BE01EB102990098084430
:104660003060404608B0BDE8F087081E00D0451E07
:104670000EB160193060C9E900450020F2E7000082
:1046800028000020EFBBBF0070B515460E460400A1
:1046900009D0FBF7A1FD411C2B4632462046BDE860
:1046A0007040FFF783BF002070BD000031B5084D9A
:1046B0006C68FDF7C3FC0749B0FBF1F00099484373
:1046C000009068680099001B8842FAD338BD00004A
:1046D000001000E040420F002DE9F0418846A8B3E9
:1046E000B8F1000F33D084680AB90AE024686CB3CB
:1046F000216A59B34046FBF776FD0028F6D120E049
:1047000024681CB3266A5FEA0805F9D0002EF7D0AA
:10471000B54218D002E098B16D1C761C2878FBF7E2
:1047200013FD07463078FBF70FFD87422878F2D05B
:10473000FBF70AFD05463078FBF706FD8542DFD121
:1047400024B1206A10B12046BDE8F081FFE70020C7
:10475000FAE7000010B5094C09484FF4805162781F
:1047600063799A4204D90022FDF710F9012003E091
:104770000122FDF70BF90020A07110BD0000002000
:10478000000C01402DE9F0410B3020F00706104DE0
:1047900019E02068B04215D3B0420AD9871B201D0A
:1047A000D4F80480FBF7D6FCA019C0E90078286093
:1047B00004E060682860201DFBF7CCFC201D26600B
:1047C000BDE8F081251D2C68002CE2D10020F7E720
:1047D00044000020FDF71EF9FEF75BFEFEF70EFD1C
:1047E000FEF7D4FDFEF7A6FDFEF7E8FC1E481D49C6
:1047F0000C2201604FF4E131416000218160C16011
:10480000C0E904128161C161FEF76EFB16484038B1
:10481000FDF7E2FF14488038FDF7DEFF012213495F
:104820001148FEF72BFC124C012211032046FDF724
:10483000ADF8012251032046FDF7A8F801229102AC
:104840002046FDF7A3F80122D1022046FDF79EF88D
:10485000064CE41F20780128FCD1FFF717FEFFF774
:1048600079FFF7E700440040000100200700002026
:10487000000C01402DE9F04107460025C8680C46B0
:104880002E46B0F57A7F5BD2401CE0602168A068BC
:10489000095C5B2954D1401CA0602046FFF7DDFD78
:1048A0004CB1D4E90110884203D22268125C5D2A1F
:1048B00033D0884203D3A068401EA06040E0401E71
:1048C00004F11008A0604046FFF761FE98B30DB3F5
:1048D000306046600646A068401CA0602046FFF796
:1048E000BCFD2146304600F0D1F930B32046FFF739
:1048F000B4FD14B3D4E90110884203D22168095CE5
:104900002C29E0D06268904217D22168085C5D28AB
:1049100013D102E005462E46DDE7E068401EE06068
:1049200005B16E602020C7E90250A068401CA0605D
:104930000120BDE8F081FFE715B12846FFF700FE32
:104940000020F6E7034610B500200246995CA1F16D
:104950003004092C01D830380AE0A1F14104052CBB
:1049600001D8373804E0A1F16104052C08D8573884
:104970000844032A00D20001521C042AE6D310BDC9
:10498000002010BD2DE9F04192B04FF00005064621
:104990000C004FF02E03284610953CD02168D1B36F
:1049A0006A4627E027683944415C34291BD00ADC79
:1049B000A1F12B07092F23D2DFE807F015221517E5
:1049C00022151515150038290DD006DC35290AD019
:1049D000362908D0372913D105E0392903D04529D4
:1049E00001D065290CD1115400E01354401C3F281C
:1049F00006D22CB1A168D4F804C00F186745D1D3F2
:104A00001554904610A9104600F0A8FA0F461099C8
:104A10000546884503D1002012B0BDE8F081C6E903
:104A20000657114A114B28463946FBF7ADFE02D80E
:104A30006FF000400DE000220D4B28463946FBF791
:104A40008BFE02D84FF0004003E028463946FBF7C2
:104A500064FE70610820F060109AA168A2EB080063
:104A60000844A0600120D7E70000C0FFFFFFDF413E
:104A70000000E0C12DE9F04107460026C8680C4659
:104A80003546B0F57A7F78D2401CE060002C74D0B7
:104A9000D4E90110884270D22168095C7B296CD16D
:104AA000401CA0602046FFF7D8FCD4E901108842E2
:104AB00003D22268125C7D2A4CD08842A0F101000A
:104AC000A0605AD204F110084046FFF760FDE8B339
:104AD000F6B1286045600546A068401CA0602046ED
:104AE000FFF7BBFC2146284600F049F878B3204682
:104AF000FFF7B3FC28692862002028613CB3D4E9A1
:104B00000110884236D22168095C3A2932D102E08C
:104B100006463546E0E7401CA0602046FFF79DFCB6
:104B20002146284600F0B2F888B12046FFF795FCF0
:104B3000D4E90110884203D22168095C2C29C3D032
:104B40006268904216D22168085C01E011E011E031
:104B50007D280FD1E068401EE06006B175604020FE
:104B6000C7E90260A068401CA0600120BDE8F08198
:104B700003E016B13046FFF7E3FC0020F6E72DE92D
:104B8000F84380468B6808684FF00009C418CDF8D8
:104B9000009008680E46651CC15C641C22296ED119
:104BA0000022716808E0BCF15C0F04D17F1C8F42C9
:104BB00065D2521C641C641C271A8F4204D294F8DC
:104BC00000C0BCF1220FEED1271A8F4257D22178B4
:104BD000222954D11844201A801A3169401C884770
:104BE00007004CD0009737E029785C2905D0009861
:104BF0006D1C00F8011B00902EE00220611B0129B2
:104C000039DB6A78662A14D008DC222A12D02F2ACF
:104C100010D05C2A0ED0622A2DD108E06E2A0ED068
:104C2000722A0ED0742A0ED0752A24D10DE00822E3
:104C300000E00C22009901F8012B00910BE00A2200
:104C4000F8E70D22F6E70922F4E76A4621462846EE
:104C500000F092F978B10544A542C5D3009981F8D6
:104C600000901021C8E903173068201A401CB0607A
:104C70000120BDE8F88317B171693846884715B13E
:104C80003068281AB0600020F3E7000070B50C000F
:104C900005465ED0206800285BD0A16863680A1DC5
:104CA0009A4205D80844042231A1FBF7AAFA78B346
:104CB000A0686268411D0126914206D8216805223C
:104CC00008442DA1FBF79DFA28B3A0686268011D76
:104CD000914206D821680422084429A1FBF791FAE1
:104CE000E8B1D4E90101814203D22268525C222A50
:104CF0001DD0814221D22268525C2D2A02D0303A46
:104D0000092A1AD821462846BDE87040FFF73ABE66
:104D10000420E86006E0EE60A068401D04E0022088
:104D20006E61E860A068001DA060012070BD214692
:104D30002846BDE87040FFF722BF814203D22268B7
:104D4000525C5B2A07D0814203D22068405C7B28FA
:104D500007D0002070BD21462846BDE87040FFF70F
:104D600089BD21462846BDE87040FFF783BE00009C
:104D70006E756C6C0000000066616C73650000006D
:104D800074727565000000002DE9F04704008A4642
:104D900016D054F8047CD4F800903E1F564500D934
:104DA00056462046FEF7A0FE054688463246214676
:104DB0005046FFF7E7FC40B1C0F80090BDE8F0872F
:104DC000BDE8F0470846FEF7BDBE44E9017955B19C
:104DD00029686A18211F8A4202D9611B091F2960AC
:104DE000C5F80480EAE7024AC2F80080E6E700005E
:104DF000440000202DE9F041ACB00C460546984631
:104E0000174664216846329EFBF7BDF900201990D1
:104E10001A901B901C901D901E901F902090219026
:104E200022902390249025902690279028902990D6
:104E30002A902A4637A119A8FEF73EFE224635A140
:104E40001CA8FEF739FE3A4632A11FA8FEF734FE31
:104E5000424630A122A8FEF72FFE32462DA125A8FA
:104E6000FEF72AFE2C482BA1827928A8FEF724FE03
:104E70002AA16846FBF792F919A96846FBF78EF953
:104E800028A16846FBF78AF927A16846FBF786F94F
:104E90001CA96846FBF782F922A16846FBF77EF958
:104EA00023A16846FBF77AF91FA96846FBF776F954
:104EB0001CA16846FBF772F91FA16846FBF76EF963
:104EC00022A96846FBF76AF916A16846FBF766F95E
:104ED0001BA16846FBF762F928A96846FBF75EF953
:104EE00010A16846FBF75AF918A16846FBF756F976
:104EF00025A96846FBF752F916A16846FBF74EF95B
:104F00000A23642269461448FEF7F8F82CB0BDE87D
:104F1000F081000025640000000000207B224E4448
:104F2000223A2200222C0000224441223A22000090
:104F300022544231223A220022544232223A2200A2
:104F4000224946414E223A220000000022433122EB
:104F50003A220000227D0A000001002000B583B043
:104F60000A460021CDE9001101466846FBF7C7FC5F
:104F7000DDE9000103B000BD2DE9F047054600273B
:104F8000481B1646894606285DDBA81CFFF7DAFC9D
:104F90000446A0F55C414FF48060814253D3A4F5F0
:104FA0005841824651451AD2A81DA9EB00014FF085
:104FB0000C08062947DB01785C2944D14178752922
:104FC00041D1801CFFF7BEFCA0F55C4151453AD2AF
:104FD000C4F3090161F39F2000F5803002E04FF037
:104FE00006082046802801D2012110E0B0F5006FAC
:104FF00002D20221C0270AE0B0F5803F02D203218D
:10500000E02704E0B0F5881F1DD20421F0274A1ED6
:1050100008E000BF00F0BF03346843F0800380095C
:10502000A354521E12F0FF02F4D1012901D93843D2
:1050300001E000F07F003268107030680844306092
:105040004046BDE8F0870020FBE7000000000000BC
:105050000000010203040607080900000000010225
:1050600003040040404040404040404041414141F5
:10507000414040404040404040404040404040402F
:105080004040400502020202020202020202020243
:1050900002020220202020202020202020020202C4
:1050A0000202020290909090909010101010101038
:1050B000101010101010101010101010101002020C
:1050C0000202020288888888888808080808080878
:1050D000080808080808080808080808080802025C
:1050E0000202400063500008085100080000002040
:1050F00050000000943B0008585100085000002068
:1051000058070000A43B000800000000001E01003A
:10511000000000000000000000000000000000008F
:1051200001000000100000000000000000A24A047E
:105130000000000000000000453B0008E93A0008BC
:10514000894D000800000000000000000000000081
:08515000000000000000000057
:04000005080000ED02
:00000001FF
